{
  "contractName": "SmartDelivery",
  "abi": [
    {
      "inputs": [
        {
          "internalType": "address",
          "name": "_admin",
          "type": "address"
        },
        {
          "internalType": "uint256",
          "name": "_expirationMinutes",
          "type": "uint256"
        }
      ],
      "stateMutability": "nonpayable",
      "type": "constructor"
    },
    {
      "anonymous": false,
      "inputs": [
        {
          "indexed": false,
          "internalType": "string",
          "name": "deliveryId",
          "type": "string"
        }
      ],
      "name": "DeliveryCleared",
      "type": "event"
    },
    {
      "anonymous": false,
      "inputs": [
        {
          "indexed": false,
          "internalType": "uint256",
          "name": "endTime",
          "type": "uint256"
        },
        {
          "indexed": false,
          "internalType": "bool",
          "name": "success",
          "type": "bool"
        },
        {
          "indexed": false,
          "internalType": "string",
          "name": "message",
          "type": "string"
        },
        {
          "indexed": false,
          "internalType": "string",
          "name": "deliveryId",
          "type": "string"
        }
      ],
      "name": "DeliveryCompleted",
      "type": "event"
    },
    {
      "anonymous": false,
      "inputs": [
        {
          "indexed": true,
          "internalType": "address",
          "name": "provider",
          "type": "address"
        },
        {
          "indexed": true,
          "internalType": "address",
          "name": "deliverer",
          "type": "address"
        },
        {
          "indexed": true,
          "internalType": "address",
          "name": "client",
          "type": "address"
        },
        {
          "indexed": false,
          "internalType": "uint256",
          "name": "deliveryPrice",
          "type": "uint256"
        },
        {
          "indexed": false,
          "internalType": "uint256",
          "name": "productPrice",
          "type": "uint256"
        },
        {
          "indexed": false,
          "internalType": "string",
          "name": "deliveryId",
          "type": "string"
        }
      ],
      "name": "DeliveryStarted",
      "type": "event"
    },
    {
      "anonymous": false,
      "inputs": [
        {
          "indexed": true,
          "internalType": "address",
          "name": "client",
          "type": "address"
        },
        {
          "indexed": false,
          "internalType": "uint256",
          "name": "amount",
          "type": "uint256"
        },
        {
          "indexed": false,
          "internalType": "string",
          "name": "deliveryId",
          "type": "string"
        }
      ],
      "name": "PaymentRefunded",
      "type": "event"
    },
    {
      "anonymous": false,
      "inputs": [
        {
          "indexed": true,
          "internalType": "address",
          "name": "deliverer",
          "type": "address"
        },
        {
          "indexed": false,
          "internalType": "uint256",
          "name": "amount",
          "type": "uint256"
        },
        {
          "indexed": false,
          "internalType": "string",
          "name": "deliveryId",
          "type": "string"
        }
      ],
      "name": "PaymentReleased",
      "type": "event"
    },
    {
      "anonymous": false,
      "inputs": [
        {
          "indexed": true,
          "internalType": "address",
          "name": "provider",
          "type": "address"
        },
        {
          "indexed": false,
          "internalType": "uint256",
          "name": "amount",
          "type": "uint256"
        },
        {
          "indexed": false,
          "internalType": "string",
          "name": "deliveryId",
          "type": "string"
        }
      ],
      "name": "ProviderPaid",
      "type": "event"
    },
    {
      "inputs": [],
      "name": "admin",
      "outputs": [
        {
          "internalType": "address",
          "name": "",
          "type": "address"
        }
      ],
      "stateMutability": "view",
      "type": "function",
      "constant": true
    },
    {
      "inputs": [
        {
          "internalType": "string",
          "name": "",
          "type": "string"
        }
      ],
      "name": "deliveries",
      "outputs": [
        {
          "components": [
            {
              "internalType": "address",
              "name": "provider",
              "type": "address"
            },
            {
              "internalType": "address",
              "name": "deliverer",
              "type": "address"
            },
            {
              "internalType": "address",
              "name": "client",
              "type": "address"
            }
          ],
          "internalType": "struct SmartDelivery.Parties",
          "name": "parties",
          "type": "tuple"
        },
        {
          "components": [
            {
              "internalType": "uint256",
              "name": "minTemp",
              "type": "uint256"
            },
            {
              "internalType": "uint256",
              "name": "maxTemp",
              "type": "uint256"
            },
            {
              "internalType": "uint256",
              "name": "minHumidity",
              "type": "uint256"
            },
            {
              "internalType": "uint256",
              "name": "maxHumidity",
              "type": "uint256"
            }
          ],
          "internalType": "struct SmartDelivery.Requirements",
          "name": "requirements",
          "type": "tuple"
        },
        {
          "components": [
            {
              "internalType": "uint256",
              "name": "deliveryPrice",
              "type": "uint256"
            },
            {
              "internalType": "uint256",
              "name": "productPrice",
              "type": "uint256"
            },
            {
              "internalType": "bool",
              "name": "paymentReleased",
              "type": "bool"
            }
          ],
          "internalType": "struct SmartDelivery.Payment",
          "name": "payment",
          "type": "tuple"
        },
        {
          "internalType": "uint256",
          "name": "endTime",
          "type": "uint256"
        },
        {
          "internalType": "bool",
          "name": "active",
          "type": "bool"
        },
        {
          "internalType": "string",
          "name": "deliveryId",
          "type": "string"
        }
      ],
      "stateMutability": "view",
      "type": "function",
      "constant": true
    },
    {
      "inputs": [
        {
          "internalType": "uint256",
          "name": "",
          "type": "uint256"
        }
      ],
      "name": "deliveryIds",
      "outputs": [
        {
          "internalType": "string",
          "name": "",
          "type": "string"
        }
      ],
      "stateMutability": "view",
      "type": "function",
      "constant": true
    },
    {
      "inputs": [],
      "name": "expirationMinutes",
      "outputs": [
        {
          "internalType": "uint256",
          "name": "",
          "type": "uint256"
        }
      ],
      "stateMutability": "view",
      "type": "function",
      "constant": true
    },
    {
      "inputs": [
        {
          "internalType": "address",
          "name": "_provider",
          "type": "address"
        },
        {
          "internalType": "address",
          "name": "_deliverer",
          "type": "address"
        },
        {
          "internalType": "uint256",
          "name": "_minTemp",
          "type": "uint256"
        },
        {
          "internalType": "uint256",
          "name": "_maxTemp",
          "type": "uint256"
        },
        {
          "internalType": "uint256",
          "name": "_minHumidity",
          "type": "uint256"
        },
        {
          "internalType": "uint256",
          "name": "_maxHumidity",
          "type": "uint256"
        },
        {
          "internalType": "uint256",
          "name": "_productPrice",
          "type": "uint256"
        },
        {
          "internalType": "uint256",
          "name": "_deliveryPrice",
          "type": "uint256"
        },
        {
          "internalType": "string",
          "name": "_deliveryId",
          "type": "string"
        }
      ],
      "name": "startDelivery",
      "outputs": [],
      "stateMutability": "payable",
      "type": "function",
      "payable": true
    },
    {
      "inputs": [
        {
          "internalType": "string",
          "name": "_deliveryId",
          "type": "string"
        },
        {
          "internalType": "uint256",
          "name": "_endTime",
          "type": "uint256"
        },
        {
          "internalType": "uint256",
          "name": "_avgTemp",
          "type": "uint256"
        },
        {
          "internalType": "uint256",
          "name": "_avgHumidity",
          "type": "uint256"
        }
      ],
      "name": "completeDelivery",
      "outputs": [],
      "stateMutability": "nonpayable",
      "type": "function"
    },
    {
      "inputs": [],
      "name": "clearOldDeliveries",
      "outputs": [],
      "stateMutability": "nonpayable",
      "type": "function"
    },
    {
      "inputs": [
        {
          "internalType": "string",
          "name": "_deliveryId",
          "type": "string"
        }
      ],
      "name": "getDelivery",
      "outputs": [
        {
          "components": [
            {
              "internalType": "address",
              "name": "provider",
              "type": "address"
            },
            {
              "internalType": "address",
              "name": "deliverer",
              "type": "address"
            },
            {
              "internalType": "address",
              "name": "client",
              "type": "address"
            },
            {
              "internalType": "uint256",
              "name": "minTemp",
              "type": "uint256"
            },
            {
              "internalType": "uint256",
              "name": "maxTemp",
              "type": "uint256"
            },
            {
              "internalType": "uint256",
              "name": "minHumidity",
              "type": "uint256"
            },
            {
              "internalType": "uint256",
              "name": "maxHumidity",
              "type": "uint256"
            },
            {
              "internalType": "uint256",
              "name": "deliveryPrice",
              "type": "uint256"
            },
            {
              "internalType": "uint256",
              "name": "productPrice",
              "type": "uint256"
            },
            {
              "internalType": "uint256",
              "name": "endTime",
              "type": "uint256"
            },
            {
              "internalType": "bool",
              "name": "paymentReleased",
              "type": "bool"
            },
            {
              "internalType": "bool",
              "name": "active",
              "type": "bool"
            },
            {
              "internalType": "string",
              "name": "deliveryId",
              "type": "string"
            }
          ],
          "internalType": "struct SmartDelivery.DeliveryDetails",
          "name": "",
          "type": "tuple"
        }
      ],
      "stateMutability": "view",
      "type": "function",
      "constant": true
    }
  ],
  "bytecode": "0x60806040523480156200001157600080fd5b50604051620028473803806200284783398181016040528101906200003791906200019d565b600073ffffffffffffffffffffffffffffffffffffffff168273ffffffffffffffffffffffffffffffffffffffff1603620000a9576040517f08c379a0000000000000000000000000000000000000000000000000000000008152600401620000a09062000245565b60405180910390fd5b816000806101000a81548173ffffffffffffffffffffffffffffffffffffffff021916908373ffffffffffffffffffffffffffffffffffffffff16021790555080600181905550505062000267565b600080fd5b600073ffffffffffffffffffffffffffffffffffffffff82169050919050565b60006200012a82620000fd565b9050919050565b6200013c816200011d565b81146200014857600080fd5b50565b6000815190506200015c8162000131565b92915050565b6000819050919050565b620001778162000162565b81146200018357600080fd5b50565b60008151905062000197816200016c565b92915050565b60008060408385031215620001b757620001b6620000f8565b5b6000620001c7858286016200014b565b9250506020620001da8582860162000186565b9150509250929050565b600082825260208201905092915050565b7f496e76616c69642061646d696e20616464726573730000000000000000000000600082015250565b60006200022d601583620001e4565b91506200023a82620001f5565b602082019050919050565b6000602082019050818103600083015262000260816200021e565b9050919050565b6125d080620002776000396000f3fe60806040526004361061007b5760003560e01c8063af7f372e1161004e578063af7f372e1461012d578063d83a7cf914610144578063e1ca449f14610181578063f851a440146101c35761007b565b80630b376b091461008057806378835dd9146100ab5780637ff59c1b146100e85780639432096a14610104575b600080fd5b34801561008c57600080fd5b506100956101ee565b6040516100a29190611769565b60405180910390f35b3480156100b757600080fd5b506100d260048036038101906100cd91906117c4565b6101f4565b6040516100df919061188a565b60405180910390f35b61010260048036038101906100fd9190611a3f565b6102a0565b005b34801561011057600080fd5b5061012b60048036038101906101269190611b25565b61073e565b005b34801561013957600080fd5b5061014261099a565b005b34801561015057600080fd5b5061016b60048036038101906101669190611ba8565b610d56565b6040516101789190611d8d565b60405180910390f35b34801561018d57600080fd5b506101a860048036038101906101a39190611ba8565b610f7a565b6040516101ba96959493929190611e97565b60405180910390f35b3480156101cf57600080fd5b506101d86111d8565b6040516101e59190611f12565b60405180910390f35b60015481565b6003818154811061020457600080fd5b90600052602060002001600091509050805461021f90611f5c565b80601f016020809104026020016040519081016040528092919081815260200182805461024b90611f5c565b80156102985780601f1061026d57610100808354040283529160200191610298565b820191906000526020600020905b81548152906001019060200180831161027b57829003601f168201915b505050505081565b6002816040516102b09190611fc9565b9081526020016040518091039020600b0160009054906101000a900460ff161561030f576040517f08c379a00000000000000000000000000000000000000000000000000000000081526004016103069061202c565b60405180910390fd5b818361031b919061207b565b341461035c576040517f08c379a00000000000000000000000000000000000000000000000000000000081526004016103539061211d565b60405180910390fd5b8873ffffffffffffffffffffffffffffffffffffffff166108fc849081150290604051600060405180830381858888f193505050501580156103a2573d6000803e3d6000fd5b508873ffffffffffffffffffffffffffffffffffffffff167f17993efc1d3ffb7b0d6367b14b869abe52b440a19b78af8a69f1d55620699f1284836040516103eb92919061213d565b60405180910390a26040518060c0016040528060405180606001604052808c73ffffffffffffffffffffffffffffffffffffffff1681526020018b73ffffffffffffffffffffffffffffffffffffffff1681526020013373ffffffffffffffffffffffffffffffffffffffff16815250815260200160405180608001604052808a8152602001898152602001888152602001878152508152602001604051806060016040528085815260200186815260200160001515815250815260200160008152602001600115158152602001828152506002826040516104cd9190611fc9565b908152602001604051809103902060008201518160000160008201518160000160006101000a81548173ffffffffffffffffffffffffffffffffffffffff021916908373ffffffffffffffffffffffffffffffffffffffff16021790555060208201518160010160006101000a81548173ffffffffffffffffffffffffffffffffffffffff021916908373ffffffffffffffffffffffffffffffffffffffff16021790555060408201518160020160006101000a81548173ffffffffffffffffffffffffffffffffffffffff021916908373ffffffffffffffffffffffffffffffffffffffff1602179055505050602082015181600301600082015181600001556020820151816001015560408201518160020155606082015181600301555050604082015181600701600082015181600001556020820151816001015560408201518160020160006101000a81548160ff0219169083151502179055505050606082015181600a0155608082015181600b0160006101000a81548160ff02191690831515021790555060a082015181600c019080519060200190610673929190611532565b509050506003819080600181540180825580915050600190039060005260206000200160009091909190915090805190602001906106b2929190611532565b508873ffffffffffffffffffffffffffffffffffffffff168873ffffffffffffffffffffffffffffffffffffffff163373ffffffffffffffffffffffffffffffffffffffff167f06f53407c4b526cfadec389a4621569dd2a8b53fdbcf57e4e163b7fdb1fb6d6e85878660405161072b9392919061216d565b60405180910390a4505050505050505050565b60006002856040516107509190611fc9565b908152602001604051809103902090508060000160020160009054906101000a900473ffffffffffffffffffffffffffffffffffffffff1673ffffffffffffffffffffffffffffffffffffffff163373ffffffffffffffffffffffffffffffffffffffff16146107f5576040517f08c379a00000000000000000000000000000000000000000000000000000000081526004016107ec9061221d565b60405180910390fd5b80600b0160009054906101000a900460ff16610846576040517f08c379a000000000000000000000000000000000000000000000000000000000815260040161083d90612289565b60405180910390fd5b8060070160020160009054906101000a900460ff161561089b576040517f08c379a0000000000000000000000000000000000000000000000000000000008152600401610892906122f5565b60405180910390fd5b8381600a0181905550600081600b0160006101000a81548160ff02191690831515021790555060006108ce8285856111fc565b90506108db82828861124b565b7fa403ae9a63c100b1885df4b00c8e03fd2d366b27704ed8a562cef512cc60a2e382600a01548283610942576040518060400160405280601b81526020017f44656c697665727920636f6e646974696f6e73206e6f74206d65740000000000815250610979565b6040518060400160405280601781526020017f44656c697665727920636f6e646974696f6e73206d65740000000000000000008152505b8960405161098a9493929190612315565b60405180910390a1505050505050565b60008054906101000a900473ffffffffffffffffffffffffffffffffffffffff1673ffffffffffffffffffffffffffffffffffffffff163373ffffffffffffffffffffffffffffffffffffffff1614610a28576040517f08c379a0000000000000000000000000000000000000000000000000000000008152600401610a1f906123da565b60405180910390fd5b60004290506000603c600154610a3e91906123fa565b905060005b600380549050811015610d5157600060038281548110610a6657610a65612454565b5b906000526020600020018054610a7b90611f5c565b80601f0160208091040260200160405190810160405280929190818152602001828054610aa790611f5c565b8015610af45780601f10610ac957610100808354040283529160200191610af4565b820191906000526020600020905b815481529060010190602001808311610ad757829003601f168201915b505050505090506000600282604051610b0d9190611fc9565b9081526020016040518091039020905080600b0160009054906101000a900460ff16158015610b4a57508381600a0154610b47919061207b565b85115b15610d3b57600282604051610b5f9190611fc9565b90815260200160405180910390206000808201600080820160006101000a81549073ffffffffffffffffffffffffffffffffffffffff02191690556001820160006101000a81549073ffffffffffffffffffffffffffffffffffffffff02191690556002820160006101000a81549073ffffffffffffffffffffffffffffffffffffffff021916905550506003820160008082016000905560018201600090556002820160009055600382016000905550506007820160008082016000905560018201600090556002820160006101000a81549060ff02191690555050600a820160009055600b820160006101000a81549060ff0219169055600c82016000610c6891906115b8565b505060036001600380549050610c7e9190612483565b81548110610c8f57610c8e612454565b5b9060005260206000200160038481548110610cad57610cac612454565b5b90600052602060002001908054610cc390611f5c565b610cce9291906115f8565b506003805480610ce157610ce06124b7565b5b600190038181906000526020600020016000610cfd91906115b8565b90557f57e00cd57a040581b301944ec10f12d2d7cf98a886e7b8da5e011030fb06387282604051610d2e919061188a565b60405180910390a1610d4a565b8280610d46906124e6565b9350505b5050610a43565b505050565b610d5e611685565b6000600283604051610d709190611fc9565b90815260200160405180910390209050604051806101a001604052808260000160000160009054906101000a900473ffffffffffffffffffffffffffffffffffffffff1673ffffffffffffffffffffffffffffffffffffffff1681526020018260000160010160009054906101000a900473ffffffffffffffffffffffffffffffffffffffff1673ffffffffffffffffffffffffffffffffffffffff1681526020018260000160020160009054906101000a900473ffffffffffffffffffffffffffffffffffffffff1673ffffffffffffffffffffffffffffffffffffffff16815260200182600301600001548152602001826003016001015481526020018260030160020154815260200182600301600301548152602001826007016000015481526020018260070160010154815260200182600a015481526020018260070160020160009054906101000a900460ff161515815260200182600b0160009054906101000a900460ff161515815260200182600c018054610ef190611f5c565b80601f0160208091040260200160405190810160405280929190818152602001828054610f1d90611f5c565b8015610f6a5780601f10610f3f57610100808354040283529160200191610f6a565b820191906000526020600020905b815481529060010190602001808311610f4d57829003601f168201915b5050505050815250915050919050565b600281805160208101820180518482526020830160208501208183528095505050505050600091509050806000016040518060600160405290816000820160009054906101000a900473ffffffffffffffffffffffffffffffffffffffff1673ffffffffffffffffffffffffffffffffffffffff1673ffffffffffffffffffffffffffffffffffffffff1681526020016001820160009054906101000a900473ffffffffffffffffffffffffffffffffffffffff1673ffffffffffffffffffffffffffffffffffffffff1673ffffffffffffffffffffffffffffffffffffffff1681526020016002820160009054906101000a900473ffffffffffffffffffffffffffffffffffffffff1673ffffffffffffffffffffffffffffffffffffffff1673ffffffffffffffffffffffffffffffffffffffff16815250509080600301604051806080016040529081600082015481526020016001820154815260200160028201548152602001600382015481525050908060070160405180606001604052908160008201548152602001600182015481526020016002820160009054906101000a900460ff1615151515815250509080600a01549080600b0160009054906101000a900460ff169080600c01805461115590611f5c565b80601f016020809104026020016040519081016040528092919081815260200182805461118190611f5c565b80156111ce5780601f106111a3576101008083540402835291602001916111ce565b820191906000526020600020905b8154815290600101906020018083116111b157829003601f168201915b5050505050905086565b60008054906101000a900473ffffffffffffffffffffffffffffffffffffffff1681565b60008360030160000154831015801561121c575083600301600101548311155b801561122f575083600301600201548210155b8015611242575083600301600301548211155b90509392505050565b81156112605761125b8382611270565b61126b565b61126a83826113d1565b5b505050565b81600701600001544710156112ba576040517f08c379a00000000000000000000000000000000000000000000000000000000081526004016112b19061257a565b60405180910390fd5b8160000160010160009054906101000a900473ffffffffffffffffffffffffffffffffffffffff1673ffffffffffffffffffffffffffffffffffffffff166108fc83600701600001549081150290604051600060405180830381858888f1935050505015801561132e573d6000803e3d6000fd5b5060018260070160020160006101000a81548160ff0219169083151502179055508160000160010160009054906101000a900473ffffffffffffffffffffffffffffffffffffffff1673ffffffffffffffffffffffffffffffffffffffff167fd89638493bbe07389db88d96bf7af8577df2ccb322252b8b5a2966d7442465fd8360070160000154836040516113c592919061213d565b60405180910390a25050565b816007016000015447101561141b576040517f08c379a00000000000000000000000000000000000000000000000000000000081526004016114129061257a565b60405180910390fd5b8160000160020160009054906101000a900473ffffffffffffffffffffffffffffffffffffffff1673ffffffffffffffffffffffffffffffffffffffff166108fc83600701600001549081150290604051600060405180830381858888f1935050505015801561148f573d6000803e3d6000fd5b5060008260070160020160006101000a81548160ff0219169083151502179055508160000160020160009054906101000a900473ffffffffffffffffffffffffffffffffffffffff1673ffffffffffffffffffffffffffffffffffffffff167f6beddca67ecc13dde89ebc0bcc02269ac49d0d8f51903a6e9c2621acda7f631e83600701600001548360405161152692919061213d565b60405180910390a25050565b82805461153e90611f5c565b90600052602060002090601f01602090048101928261156057600085556115a7565b82601f1061157957805160ff19168380011785556115a7565b828001600101855582156115a7579182015b828111156115a657825182559160200191906001019061158b565b5b5090506115b49190611733565b5090565b5080546115c490611f5c565b6000825580601f106115d657506115f5565b601f0160209004906000526020600020908101906115f49190611733565b5b50565b82805461160490611f5c565b90600052602060002090601f0160209004810192826116265760008555611674565b82601f106116375780548555611674565b8280016001018555821561167457600052602060002091601f016020900482015b82811115611673578254825591600101919060010190611658565b5b5090506116819190611733565b5090565b604051806101a00160405280600073ffffffffffffffffffffffffffffffffffffffff168152602001600073ffffffffffffffffffffffffffffffffffffffff168152602001600073ffffffffffffffffffffffffffffffffffffffff16815260200160008152602001600081526020016000815260200160008152602001600081526020016000815260200160008152602001600015158152602001600015158152602001606081525090565b5b8082111561174c576000816000905550600101611734565b5090565b6000819050919050565b61176381611750565b82525050565b600060208201905061177e600083018461175a565b92915050565b6000604051905090565b600080fd5b600080fd5b6117a181611750565b81146117ac57600080fd5b50565b6000813590506117be81611798565b92915050565b6000602082840312156117da576117d961178e565b5b60006117e8848285016117af565b91505092915050565b600081519050919050565b600082825260208201905092915050565b60005b8381101561182b578082015181840152602081019050611810565b8381111561183a576000848401525b50505050565b6000601f19601f8301169050919050565b600061185c826117f1565b61186681856117fc565b935061187681856020860161180d565b61187f81611840565b840191505092915050565b600060208201905081810360008301526118a48184611851565b905092915050565b600073ffffffffffffffffffffffffffffffffffffffff82169050919050565b60006118d7826118ac565b9050919050565b6118e7816118cc565b81146118f257600080fd5b50565b600081359050611904816118de565b92915050565b600080fd5b600080fd5b7f4e487b7100000000000000000000000000000000000000000000000000000000600052604160045260246000fd5b61194c82611840565b810181811067ffffffffffffffff8211171561196b5761196a611914565b5b80604052505050565b600061197e611784565b905061198a8282611943565b919050565b600067ffffffffffffffff8211156119aa576119a9611914565b5b6119b382611840565b9050602081019050919050565b82818337600083830152505050565b60006119e26119dd8461198f565b611974565b9050828152602081018484840111156119fe576119fd61190f565b5b611a098482856119c0565b509392505050565b600082601f830112611a2657611a2561190a565b5b8135611a368482602086016119cf565b91505092915050565b60008060008060008060008060006101208a8c031215611a6257611a6161178e565b5b6000611a708c828d016118f5565b9950506020611a818c828d016118f5565b9850506040611a928c828d016117af565b9750506060611aa38c828d016117af565b9650506080611ab48c828d016117af565b95505060a0611ac58c828d016117af565b94505060c0611ad68c828d016117af565b93505060e0611ae78c828d016117af565b9250506101008a013567ffffffffffffffff811115611b0957611b08611793565b5b611b158c828d01611a11565b9150509295985092959850929598565b60008060008060808587031215611b3f57611b3e61178e565b5b600085013567ffffffffffffffff811115611b5d57611b5c611793565b5b611b6987828801611a11565b9450506020611b7a878288016117af565b9350506040611b8b878288016117af565b9250506060611b9c878288016117af565b91505092959194509250565b600060208284031215611bbe57611bbd61178e565b5b600082013567ffffffffffffffff811115611bdc57611bdb611793565b5b611be884828501611a11565b91505092915050565b611bfa816118cc565b82525050565b611c0981611750565b82525050565b60008115159050919050565b611c2481611c0f565b82525050565b600082825260208201905092915050565b6000611c46826117f1565b611c508185611c2a565b9350611c6081856020860161180d565b611c6981611840565b840191505092915050565b60006101a083016000830151611c8d6000860182611bf1565b506020830151611ca06020860182611bf1565b506040830151611cb36040860182611bf1565b506060830151611cc66060860182611c00565b506080830151611cd96080860182611c00565b5060a0830151611cec60a0860182611c00565b5060c0830151611cff60c0860182611c00565b5060e0830151611d1260e0860182611c00565b50610100830151611d27610100860182611c00565b50610120830151611d3c610120860182611c00565b50610140830151611d51610140860182611c1b565b50610160830151611d66610160860182611c1b565b50610180830151848203610180860152611d808282611c3b565b9150508091505092915050565b60006020820190508181036000830152611da78184611c74565b905092915050565b606082016000820151611dc56000850182611bf1565b506020820151611dd86020850182611bf1565b506040820151611deb6040850182611bf1565b50505050565b608082016000820151611e076000850182611c00565b506020820151611e1a6020850182611c00565b506040820151611e2d6040850182611c00565b506060820151611e406060850182611c00565b50505050565b606082016000820151611e5c6000850182611c00565b506020820151611e6f6020850182611c00565b506040820151611e826040850182611c1b565b50505050565b611e9181611c0f565b82525050565b60006101a082019050611ead6000830189611daf565b611eba6060830188611df1565b611ec760e0830187611e46565b611ed561014083018661175a565b611ee3610160830185611e88565b818103610180830152611ef68184611851565b9050979650505050505050565b611f0c816118cc565b82525050565b6000602082019050611f276000830184611f03565b92915050565b7f4e487b7100000000000000000000000000000000000000000000000000000000600052602260045260246000fd5b60006002820490506001821680611f7457607f821691505b602082108103611f8757611f86611f2d565b5b50919050565b600081905092915050565b6000611fa3826117f1565b611fad8185611f8d565b9350611fbd81856020860161180d565b80840191505092915050565b6000611fd58284611f98565b915081905092915050565b7f44656c697665727920494420616c726561647920696e20757365000000000000600082015250565b6000612016601a836117fc565b915061202182611fe0565b602082019050919050565b6000602082019050818103600083015261204581612009565b9050919050565b7f4e487b7100000000000000000000000000000000000000000000000000000000600052601160045260246000fd5b600061208682611750565b915061209183611750565b9250827fffffffffffffffffffffffffffffffffffffffffffffffffffffffffffffffff038211156120c6576120c561204c565b5b828201905092915050565b7f496e636f72726563742045746865722073656e74000000000000000000000000600082015250565b60006121076014836117fc565b9150612112826120d1565b602082019050919050565b60006020820190508181036000830152612136816120fa565b9050919050565b6000604082019050612152600083018561175a565b81810360208301526121648184611851565b90509392505050565b6000606082019050612182600083018661175a565b61218f602083018561175a565b81810360408301526121a18184611851565b9050949350505050565b7f4f6e6c792074686520636c69656e742063616e20636f6d706c6574652074686560008201527f2064656c69766572790000000000000000000000000000000000000000000000602082015250565b60006122076029836117fc565b9150612212826121ab565b604082019050919050565b60006020820190508181036000830152612236816121fa565b9050919050565b7f4e6f206163746976652064656c697665727920746f20636f6d706c6574650000600082015250565b6000612273601e836117fc565b915061227e8261223d565b602082019050919050565b600060208201905081810360008301526122a281612266565b9050919050565b7f5061796d656e7420616c72656164792072656c65617365640000000000000000600082015250565b60006122df6018836117fc565b91506122ea826122a9565b602082019050919050565b6000602082019050818103600083015261230e816122d2565b9050919050565b600060808201905061232a600083018761175a565b6123376020830186611e88565b81810360408301526123498185611851565b9050818103606083015261235d8184611851565b905095945050505050565b7f4f6e6c792061646d696e2063616e20706572666f726d2074686973206163746960008201527f6f6e000000000000000000000000000000000000000000000000000000000000602082015250565b60006123c46022836117fc565b91506123cf82612368565b604082019050919050565b600060208201905081810360008301526123f3816123b7565b9050919050565b600061240582611750565b915061241083611750565b9250817fffffffffffffffffffffffffffffffffffffffffffffffffffffffffffffffff04831182151516156124495761244861204c565b5b828202905092915050565b7f4e487b7100000000000000000000000000000000000000000000000000000000600052603260045260246000fd5b600061248e82611750565b915061249983611750565b9250828210156124ac576124ab61204c565b5b828203905092915050565b7f4e487b7100000000000000000000000000000000000000000000000000000000600052603160045260246000fd5b60006124f182611750565b91507fffffffffffffffffffffffffffffffffffffffffffffffffffffffffffffffff82036125235761252261204c565b5b600182019050919050565b7f496e73756666696369656e742062616c616e636520696e20636f6e7472616374600082015250565b60006125646020836117fc565b915061256f8261252e565b602082019050919050565b6000602082019050818103600083015261259381612557565b905091905056fea264697066735822122015b1366962fec4d5c8c8556482580f2dc549250255ed238b3c4ce32268e6b8c164736f6c634300080d0033",
  "immutableReferences": {},
  "source": "// SPDX-License-Identifier: MIT\npragma solidity ^0.8.13;\n\ncontract SmartDelivery {\n    struct Requirements {\n        uint256 minTemp;\n        uint256 maxTemp;\n        uint256 minHumidity;\n        uint256 maxHumidity;\n    }\n\n    struct Payment {\n        uint256 deliveryPrice;\n        uint256 productPrice;\n        bool paymentReleased;\n    }\n\n    struct Parties {\n        address provider;\n        address deliverer;\n        address client;\n    }\n\n    struct Delivery {\n        Parties parties;\n        Requirements requirements;\n        Payment payment;\n        uint256 endTime;\n        bool active;\n        string deliveryId;\n    }\n\n    struct DeliveryDetails {\n        address provider;\n        address deliverer;\n        address client;\n        uint256 minTemp;\n        uint256 maxTemp;\n        uint256 minHumidity;\n        uint256 maxHumidity;\n        uint256 deliveryPrice;\n        uint256 productPrice;\n        uint256 endTime;\n        bool paymentReleased;\n        bool active;\n        string deliveryId;\n    }\n\n    address public admin;\n    uint public expirationMinutes;\n    mapping(string => Delivery) public deliveries;\n    string[] public deliveryIds;  // Auxiliary array to track delivery IDs\n\n    event DeliveryStarted(address indexed provider, address indexed deliverer, address indexed client, uint256 deliveryPrice, uint256 productPrice, string deliveryId);\n    event DeliveryCompleted(uint256 endTime, bool success, string message, string deliveryId);\n    event PaymentReleased(address indexed deliverer, uint256 amount, string deliveryId);\n    event PaymentRefunded(address indexed client, uint256 amount, string deliveryId);\n    event ProviderPaid(address indexed provider, uint256 amount, string deliveryId);\n    event DeliveryCleared(string deliveryId);\n\n    modifier onlyAdmin() {\n        require(msg.sender == admin, \"Only admin can perform this action\");\n        _;\n    }\n\n    constructor(address _admin, uint _expirationMinutes) {\n        require(_admin != address(0), \"Invalid admin address\");\n        admin = _admin;\n        expirationMinutes = _expirationMinutes;\n    }\n\n    function startDelivery(\n        address _provider,\n        address _deliverer,\n        uint256 _minTemp,\n        uint256 _maxTemp,\n        uint256 _minHumidity,\n        uint256 _maxHumidity,\n        uint256 _productPrice,\n        uint256 _deliveryPrice,\n        string memory _deliveryId\n    ) public payable {\n        require(!deliveries[_deliveryId].active, \"Delivery ID already in use\");\n        require(msg.value == _productPrice + _deliveryPrice, \"Incorrect Ether sent\");\n\n        // Transfer the product price to the provider immediately\n        payable(_provider).transfer(_productPrice);\n        emit ProviderPaid(_provider, _productPrice, _deliveryId);\n\n        deliveries[_deliveryId] = Delivery({\n            parties: Parties({\n                client: msg.sender,\n                deliverer: _deliverer,\n                provider: _provider\n            }),\n            requirements: Requirements({\n                minTemp: _minTemp,\n                maxTemp: _maxTemp,\n                minHumidity: _minHumidity,\n                maxHumidity: _maxHumidity\n            }),\n            payment: Payment({\n                deliveryPrice: _deliveryPrice,\n                productPrice: _productPrice,\n                paymentReleased: false\n            }),\n            endTime: 0,\n            active: true,\n            deliveryId: _deliveryId\n        });\n\n        deliveryIds.push(_deliveryId);\n        emit DeliveryStarted(msg.sender, _deliverer, _provider, _deliveryPrice, _productPrice, _deliveryId);\n    }\n\n    function completeDelivery(\n        string memory _deliveryId,\n        uint256 _endTime,\n        uint256 _avgTemp,\n        uint256 _avgHumidity\n    ) public {\n        Delivery storage delivery = deliveries[_deliveryId];\n        require(msg.sender == delivery.parties.client, \"Only the client can complete the delivery\");\n        require(delivery.active, \"No active delivery to complete\");\n        require(!delivery.payment.paymentReleased, \"Payment already released\");\n\n        delivery.endTime = _endTime;\n        delivery.active = false;\n\n        bool success = checkDeliveryConditions(delivery, _avgTemp, _avgHumidity);\n        handlePayment(delivery, success, _deliveryId);\n\n        emit DeliveryCompleted(delivery.endTime, success, success ? \"Delivery conditions met\" : \"Delivery conditions not met\", _deliveryId);\n    }\n\n    function checkDeliveryConditions(Delivery storage delivery, uint256 avgTemp, uint256 avgHumidity) internal view returns (bool) {\n        return avgTemp >= delivery.requirements.minTemp && avgTemp <= delivery.requirements.maxTemp &&\n               avgHumidity >= delivery.requirements.minHumidity && avgHumidity <= delivery.requirements.maxHumidity;\n    }\n\n    function handlePayment(Delivery storage delivery, bool success, string memory deliveryId) internal {\n        if (success) {\n            releasePayment(delivery, deliveryId);\n        } else {\n            refundPayment(delivery, deliveryId);\n        }\n    }\n\n    function releasePayment(Delivery storage delivery, string memory deliveryId) internal {\n        require(address(this).balance >= delivery.payment.deliveryPrice, \"Insufficient balance in contract\");\n\n        payable(delivery.parties.deliverer).transfer(delivery.payment.deliveryPrice);\n        delivery.payment.paymentReleased = true;\n        emit PaymentReleased(delivery.parties.deliverer, delivery.payment.deliveryPrice, deliveryId);\n    }\n\n    function refundPayment(Delivery storage delivery, string memory deliveryId) internal {\n        require(address(this).balance >= delivery.payment.deliveryPrice, \"Insufficient balance in contract\");\n\n        payable(delivery.parties.client).transfer(delivery.payment.deliveryPrice);\n        delivery.payment.paymentReleased = false;\n        emit PaymentRefunded(delivery.parties.client, delivery.payment.deliveryPrice, deliveryId);\n    }\n\n    function clearOldDeliveries() public onlyAdmin {\n        uint256 currentTime = block.timestamp;\n        uint256 fiveMinutes = expirationMinutes * 60;\n        uint256 i = 0;\n\n        while (i < deliveryIds.length) {\n            string memory deliveryId = deliveryIds[i];\n            Delivery storage delivery = deliveries[deliveryId];\n\n            if (!delivery.active && currentTime > delivery.endTime + fiveMinutes) {\n                delete deliveries[deliveryId];  // Delete the delivery data from mapping\n                deliveryIds[i] = deliveryIds[deliveryIds.length - 1];\n                deliveryIds.pop();\n                emit DeliveryCleared(deliveryId);\n            } else {\n                i++;\n            }\n        }\n    }\n\n    function getDelivery(string memory _deliveryId) public view returns (DeliveryDetails memory) {\n        Delivery storage delivery = deliveries[_deliveryId];\n        return DeliveryDetails({\n            provider: delivery.parties.provider,\n            deliverer: delivery.parties.deliverer,\n            client: delivery.parties.client,\n            minTemp: delivery.requirements.minTemp,\n            maxTemp: delivery.requirements.maxTemp,\n            minHumidity: delivery.requirements.minHumidity,\n            maxHumidity: delivery.requirements.maxHumidity,\n            deliveryPrice: delivery.payment.deliveryPrice,\n            productPrice: delivery.payment.productPrice,\n            endTime: delivery.endTime,\n            paymentReleased: delivery.payment.paymentReleased,\n            active: delivery.active,\n            deliveryId: delivery.deliveryId\n        });\n    }\n}\n",
  "sourcePath": "/home/roman/PycharmProjects/smart-delivery/contracts/SmartDelivery.sol",
  "compiler": {
    "name": "solc",
    "version": "0.8.13+commit.abaa5c0e.Emscripten.clang"
  },
  "schemaVersion": "3.4.4",
  "updatedAt": "2024-06-06T10:28:30.818Z",
  "networkType": "ethereum",
  "devdoc": {
    "kind": "dev",
    "methods": {},
    "version": 1
  },
  "userdoc": {
    "kind": "user",
    "methods": {},
    "version": 1
  }
}