{
  "contractName": "SmartDelivery",
  "abi": [
    {
      "inputs": [
        {
          "internalType": "address",
          "name": "_admin",
          "type": "address"
        }
      ],
      "stateMutability": "nonpayable",
      "type": "constructor"
    },
    {
      "anonymous": false,
      "inputs": [
        {
          "indexed": false,
          "internalType": "string",
          "name": "deliveryId",
          "type": "string"
        }
      ],
      "name": "DeliveryCleared",
      "type": "event"
    },
    {
      "anonymous": false,
      "inputs": [
        {
          "indexed": false,
          "internalType": "uint256",
          "name": "endTime",
          "type": "uint256"
        },
        {
          "indexed": false,
          "internalType": "bool",
          "name": "success",
          "type": "bool"
        },
        {
          "indexed": false,
          "internalType": "string",
          "name": "message",
          "type": "string"
        },
        {
          "indexed": false,
          "internalType": "string",
          "name": "deliveryId",
          "type": "string"
        }
      ],
      "name": "DeliveryCompleted",
      "type": "event"
    },
    {
      "anonymous": false,
      "inputs": [
        {
          "indexed": true,
          "internalType": "address",
          "name": "provider",
          "type": "address"
        },
        {
          "indexed": true,
          "internalType": "address",
          "name": "deliverer",
          "type": "address"
        },
        {
          "indexed": true,
          "internalType": "address",
          "name": "client",
          "type": "address"
        },
        {
          "indexed": false,
          "internalType": "uint256",
          "name": "deliveryPrice",
          "type": "uint256"
        },
        {
          "indexed": false,
          "internalType": "uint256",
          "name": "productPrice",
          "type": "uint256"
        },
        {
          "indexed": false,
          "internalType": "string",
          "name": "deliveryId",
          "type": "string"
        }
      ],
      "name": "DeliveryStarted",
      "type": "event"
    },
    {
      "anonymous": false,
      "inputs": [
        {
          "indexed": true,
          "internalType": "address",
          "name": "client",
          "type": "address"
        },
        {
          "indexed": false,
          "internalType": "uint256",
          "name": "amount",
          "type": "uint256"
        },
        {
          "indexed": false,
          "internalType": "string",
          "name": "deliveryId",
          "type": "string"
        }
      ],
      "name": "PaymentRefunded",
      "type": "event"
    },
    {
      "anonymous": false,
      "inputs": [
        {
          "indexed": true,
          "internalType": "address",
          "name": "deliverer",
          "type": "address"
        },
        {
          "indexed": false,
          "internalType": "uint256",
          "name": "amount",
          "type": "uint256"
        },
        {
          "indexed": false,
          "internalType": "string",
          "name": "deliveryId",
          "type": "string"
        }
      ],
      "name": "PaymentReleased",
      "type": "event"
    },
    {
      "anonymous": false,
      "inputs": [
        {
          "indexed": true,
          "internalType": "address",
          "name": "provider",
          "type": "address"
        },
        {
          "indexed": false,
          "internalType": "uint256",
          "name": "amount",
          "type": "uint256"
        },
        {
          "indexed": false,
          "internalType": "string",
          "name": "deliveryId",
          "type": "string"
        }
      ],
      "name": "ProviderPaid",
      "type": "event"
    },
    {
      "inputs": [],
      "name": "admin",
      "outputs": [
        {
          "internalType": "address",
          "name": "",
          "type": "address"
        }
      ],
      "stateMutability": "view",
      "type": "function",
      "constant": true
    },
    {
      "inputs": [
        {
          "internalType": "string",
          "name": "",
          "type": "string"
        }
      ],
      "name": "deliveries",
      "outputs": [
        {
          "components": [
            {
              "internalType": "address",
              "name": "provider",
              "type": "address"
            },
            {
              "internalType": "address",
              "name": "deliverer",
              "type": "address"
            },
            {
              "internalType": "address",
              "name": "client",
              "type": "address"
            }
          ],
          "internalType": "struct SmartDelivery.Parties",
          "name": "parties",
          "type": "tuple"
        },
        {
          "components": [
            {
              "internalType": "uint256",
              "name": "minTemp",
              "type": "uint256"
            },
            {
              "internalType": "uint256",
              "name": "maxTemp",
              "type": "uint256"
            },
            {
              "internalType": "uint256",
              "name": "minHumidity",
              "type": "uint256"
            },
            {
              "internalType": "uint256",
              "name": "maxHumidity",
              "type": "uint256"
            }
          ],
          "internalType": "struct SmartDelivery.Requirements",
          "name": "requirements",
          "type": "tuple"
        },
        {
          "components": [
            {
              "internalType": "uint256",
              "name": "deliveryPrice",
              "type": "uint256"
            },
            {
              "internalType": "uint256",
              "name": "productPrice",
              "type": "uint256"
            },
            {
              "internalType": "bool",
              "name": "paymentReleased",
              "type": "bool"
            }
          ],
          "internalType": "struct SmartDelivery.Payment",
          "name": "payment",
          "type": "tuple"
        },
        {
          "internalType": "uint256",
          "name": "endTime",
          "type": "uint256"
        },
        {
          "internalType": "bool",
          "name": "active",
          "type": "bool"
        },
        {
          "internalType": "string",
          "name": "deliveryId",
          "type": "string"
        }
      ],
      "stateMutability": "view",
      "type": "function",
      "constant": true
    },
    {
      "inputs": [
        {
          "internalType": "uint256",
          "name": "",
          "type": "uint256"
        }
      ],
      "name": "deliveryIds",
      "outputs": [
        {
          "internalType": "string",
          "name": "",
          "type": "string"
        }
      ],
      "stateMutability": "view",
      "type": "function",
      "constant": true
    },
    {
      "inputs": [
        {
          "internalType": "address",
          "name": "_provider",
          "type": "address"
        },
        {
          "internalType": "address",
          "name": "_deliverer",
          "type": "address"
        },
        {
          "internalType": "uint256",
          "name": "_minTemp",
          "type": "uint256"
        },
        {
          "internalType": "uint256",
          "name": "_maxTemp",
          "type": "uint256"
        },
        {
          "internalType": "uint256",
          "name": "_minHumidity",
          "type": "uint256"
        },
        {
          "internalType": "uint256",
          "name": "_maxHumidity",
          "type": "uint256"
        },
        {
          "internalType": "uint256",
          "name": "_productPrice",
          "type": "uint256"
        },
        {
          "internalType": "uint256",
          "name": "_deliveryPrice",
          "type": "uint256"
        },
        {
          "internalType": "string",
          "name": "_deliveryId",
          "type": "string"
        }
      ],
      "name": "startDelivery",
      "outputs": [],
      "stateMutability": "payable",
      "type": "function",
      "payable": true
    },
    {
      "inputs": [
        {
          "internalType": "string",
          "name": "_deliveryId",
          "type": "string"
        },
        {
          "internalType": "uint256",
          "name": "_endTime",
          "type": "uint256"
        },
        {
          "internalType": "uint256",
          "name": "_avgTemp",
          "type": "uint256"
        },
        {
          "internalType": "uint256",
          "name": "_avgHumidity",
          "type": "uint256"
        }
      ],
      "name": "completeDelivery",
      "outputs": [],
      "stateMutability": "nonpayable",
      "type": "function"
    },
    {
      "inputs": [],
      "name": "clearOldDeliveries",
      "outputs": [],
      "stateMutability": "nonpayable",
      "type": "function"
    },
    {
      "inputs": [
        {
          "internalType": "string",
          "name": "_deliveryId",
          "type": "string"
        }
      ],
      "name": "getDelivery",
      "outputs": [
        {
          "components": [
            {
              "internalType": "address",
              "name": "provider",
              "type": "address"
            },
            {
              "internalType": "address",
              "name": "deliverer",
              "type": "address"
            },
            {
              "internalType": "address",
              "name": "client",
              "type": "address"
            },
            {
              "internalType": "uint256",
              "name": "minTemp",
              "type": "uint256"
            },
            {
              "internalType": "uint256",
              "name": "maxTemp",
              "type": "uint256"
            },
            {
              "internalType": "uint256",
              "name": "minHumidity",
              "type": "uint256"
            },
            {
              "internalType": "uint256",
              "name": "maxHumidity",
              "type": "uint256"
            },
            {
              "internalType": "uint256",
              "name": "deliveryPrice",
              "type": "uint256"
            },
            {
              "internalType": "uint256",
              "name": "productPrice",
              "type": "uint256"
            },
            {
              "internalType": "uint256",
              "name": "endTime",
              "type": "uint256"
            },
            {
              "internalType": "bool",
              "name": "paymentReleased",
              "type": "bool"
            },
            {
              "internalType": "bool",
              "name": "active",
              "type": "bool"
            },
            {
              "internalType": "string",
              "name": "deliveryId",
              "type": "string"
            }
          ],
          "internalType": "struct SmartDelivery.DeliveryDetails",
          "name": "",
          "type": "tuple"
        }
      ],
      "stateMutability": "view",
      "type": "function",
      "constant": true
    }
  ],
  "bytecode": "0x60806040523480156200001157600080fd5b50604051620027323803806200273283398181016040528101906200003791906200015a565b600073ffffffffffffffffffffffffffffffffffffffff168173ffffffffffffffffffffffffffffffffffffffff1603620000a9576040517f08c379a0000000000000000000000000000000000000000000000000000000008152600401620000a090620001ed565b60405180910390fd5b806000806101000a81548173ffffffffffffffffffffffffffffffffffffffff021916908373ffffffffffffffffffffffffffffffffffffffff160217905550506200020f565b600080fd5b600073ffffffffffffffffffffffffffffffffffffffff82169050919050565b60006200012282620000f5565b9050919050565b620001348162000115565b81146200014057600080fd5b50565b600081519050620001548162000129565b92915050565b600060208284031215620001735762000172620000f0565b5b6000620001838482850162000143565b91505092915050565b600082825260208201905092915050565b7f496e76616c69642061646d696e20616464726573730000000000000000000000600082015250565b6000620001d56015836200018c565b9150620001e2826200019d565b602082019050919050565b600060208201905081810360008301526200020881620001c6565b9050919050565b612513806200021f6000396000f3fe6080604052600436106100705760003560e01c8063af7f372e1161004e578063af7f372e146100f7578063d83a7cf91461010e578063e1ca449f1461014b578063f851a4401461018d57610070565b806378835dd9146100755780637ff59c1b146100b25780639432096a146100ce575b600080fd5b34801561008157600080fd5b5061009c60048036038101906100979190611752565b6101b8565b6040516100a99190611818565b60405180910390f35b6100cc60048036038101906100c791906119cd565b610264565b005b3480156100da57600080fd5b506100f560048036038101906100f09190611ab3565b610702565b005b34801561010357600080fd5b5061010c61095e565b005b34801561011a57600080fd5b5061013560048036038101906101309190611b36565b610d0e565b6040516101429190611d1b565b60405180910390f35b34801561015757600080fd5b50610172600480360381019061016d9190611b36565b610f32565b60405161018496959493929190611e34565b60405180910390f35b34801561019957600080fd5b506101a2611190565b6040516101af9190611eaf565b60405180910390f35b600281815481106101c857600080fd5b9060005260206000200160009150905080546101e390611ef9565b80601f016020809104026020016040519081016040528092919081815260200182805461020f90611ef9565b801561025c5780601f106102315761010080835404028352916020019161025c565b820191906000526020600020905b81548152906001019060200180831161023f57829003601f168201915b505050505081565b6001816040516102749190611f66565b9081526020016040518091039020600b0160009054906101000a900460ff16156102d3576040517f08c379a00000000000000000000000000000000000000000000000000000000081526004016102ca90611fc9565b60405180910390fd5b81836102df9190612018565b3414610320576040517f08c379a0000000000000000000000000000000000000000000000000000000008152600401610317906120ba565b60405180910390fd5b8873ffffffffffffffffffffffffffffffffffffffff166108fc849081150290604051600060405180830381858888f19350505050158015610366573d6000803e3d6000fd5b508873ffffffffffffffffffffffffffffffffffffffff167f17993efc1d3ffb7b0d6367b14b869abe52b440a19b78af8a69f1d55620699f1284836040516103af9291906120da565b60405180910390a26040518060c0016040528060405180606001604052808c73ffffffffffffffffffffffffffffffffffffffff1681526020018b73ffffffffffffffffffffffffffffffffffffffff1681526020013373ffffffffffffffffffffffffffffffffffffffff16815250815260200160405180608001604052808a8152602001898152602001888152602001878152508152602001604051806060016040528085815260200186815260200160001515815250815260200160008152602001600115158152602001828152506001826040516104919190611f66565b908152602001604051809103902060008201518160000160008201518160000160006101000a81548173ffffffffffffffffffffffffffffffffffffffff021916908373ffffffffffffffffffffffffffffffffffffffff16021790555060208201518160010160006101000a81548173ffffffffffffffffffffffffffffffffffffffff021916908373ffffffffffffffffffffffffffffffffffffffff16021790555060408201518160020160006101000a81548173ffffffffffffffffffffffffffffffffffffffff021916908373ffffffffffffffffffffffffffffffffffffffff1602179055505050602082015181600301600082015181600001556020820151816001015560408201518160020155606082015181600301555050604082015181600701600082015181600001556020820151816001015560408201518160020160006101000a81548160ff0219169083151502179055505050606082015181600a0155608082015181600b0160006101000a81548160ff02191690831515021790555060a082015181600c0190805190602001906106379291906114ea565b509050506002819080600181540180825580915050600190039060005260206000200160009091909190915090805190602001906106769291906114ea565b508873ffffffffffffffffffffffffffffffffffffffff168873ffffffffffffffffffffffffffffffffffffffff163373ffffffffffffffffffffffffffffffffffffffff167f06f53407c4b526cfadec389a4621569dd2a8b53fdbcf57e4e163b7fdb1fb6d6e8587866040516106ef9392919061210a565b60405180910390a4505050505050505050565b60006001856040516107149190611f66565b908152602001604051809103902090508060000160020160009054906101000a900473ffffffffffffffffffffffffffffffffffffffff1673ffffffffffffffffffffffffffffffffffffffff163373ffffffffffffffffffffffffffffffffffffffff16146107b9576040517f08c379a00000000000000000000000000000000000000000000000000000000081526004016107b0906121ba565b60405180910390fd5b80600b0160009054906101000a900460ff1661080a576040517f08c379a000000000000000000000000000000000000000000000000000000000815260040161080190612226565b60405180910390fd5b8060070160020160009054906101000a900460ff161561085f576040517f08c379a000000000000000000000000000000000000000000000000000000000815260040161085690612292565b60405180910390fd5b8381600a0181905550600081600b0160006101000a81548160ff02191690831515021790555060006108928285856111b4565b905061089f828288611203565b7fa403ae9a63c100b1885df4b00c8e03fd2d366b27704ed8a562cef512cc60a2e382600a01548283610906576040518060400160405280601b81526020017f44656c697665727920636f6e646974696f6e73206e6f74206d6574000000000081525061093d565b6040518060400160405280601781526020017f44656c697665727920636f6e646974696f6e73206d65740000000000000000008152505b8960405161094e94939291906122b2565b60405180910390a1505050505050565b60008054906101000a900473ffffffffffffffffffffffffffffffffffffffff1673ffffffffffffffffffffffffffffffffffffffff163373ffffffffffffffffffffffffffffffffffffffff16146109ec576040517f08c379a00000000000000000000000000000000000000000000000000000000081526004016109e390612377565b60405180910390fd5b6000429050600061012c905060005b600280549050811015610d0957600060028281548110610a1e57610a1d612397565b5b906000526020600020018054610a3390611ef9565b80601f0160208091040260200160405190810160405280929190818152602001828054610a5f90611ef9565b8015610aac5780601f10610a8157610100808354040283529160200191610aac565b820191906000526020600020905b815481529060010190602001808311610a8f57829003601f168201915b505050505090506000600182604051610ac59190611f66565b9081526020016040518091039020905080600b0160009054906101000a900460ff16158015610b0257508381600a0154610aff9190612018565b85115b15610cf357600182604051610b179190611f66565b90815260200160405180910390206000808201600080820160006101000a81549073ffffffffffffffffffffffffffffffffffffffff02191690556001820160006101000a81549073ffffffffffffffffffffffffffffffffffffffff02191690556002820160006101000a81549073ffffffffffffffffffffffffffffffffffffffff021916905550506003820160008082016000905560018201600090556002820160009055600382016000905550506007820160008082016000905560018201600090556002820160006101000a81549060ff02191690555050600a820160009055600b820160006101000a81549060ff0219169055600c82016000610c209190611570565b505060026001600280549050610c3691906123c6565b81548110610c4757610c46612397565b5b9060005260206000200160028481548110610c6557610c64612397565b5b90600052602060002001908054610c7b90611ef9565b610c869291906115b0565b506002805480610c9957610c986123fa565b5b600190038181906000526020600020016000610cb59190611570565b90557f57e00cd57a040581b301944ec10f12d2d7cf98a886e7b8da5e011030fb06387282604051610ce69190611818565b60405180910390a1610d02565b8280610cfe90612429565b9350505b50506109fb565b505050565b610d1661163d565b6000600183604051610d289190611f66565b90815260200160405180910390209050604051806101a001604052808260000160000160009054906101000a900473ffffffffffffffffffffffffffffffffffffffff1673ffffffffffffffffffffffffffffffffffffffff1681526020018260000160010160009054906101000a900473ffffffffffffffffffffffffffffffffffffffff1673ffffffffffffffffffffffffffffffffffffffff1681526020018260000160020160009054906101000a900473ffffffffffffffffffffffffffffffffffffffff1673ffffffffffffffffffffffffffffffffffffffff16815260200182600301600001548152602001826003016001015481526020018260030160020154815260200182600301600301548152602001826007016000015481526020018260070160010154815260200182600a015481526020018260070160020160009054906101000a900460ff161515815260200182600b0160009054906101000a900460ff161515815260200182600c018054610ea990611ef9565b80601f0160208091040260200160405190810160405280929190818152602001828054610ed590611ef9565b8015610f225780601f10610ef757610100808354040283529160200191610f22565b820191906000526020600020905b815481529060010190602001808311610f0557829003601f168201915b5050505050815250915050919050565b600181805160208101820180518482526020830160208501208183528095505050505050600091509050806000016040518060600160405290816000820160009054906101000a900473ffffffffffffffffffffffffffffffffffffffff1673ffffffffffffffffffffffffffffffffffffffff1673ffffffffffffffffffffffffffffffffffffffff1681526020016001820160009054906101000a900473ffffffffffffffffffffffffffffffffffffffff1673ffffffffffffffffffffffffffffffffffffffff1673ffffffffffffffffffffffffffffffffffffffff1681526020016002820160009054906101000a900473ffffffffffffffffffffffffffffffffffffffff1673ffffffffffffffffffffffffffffffffffffffff1673ffffffffffffffffffffffffffffffffffffffff16815250509080600301604051806080016040529081600082015481526020016001820154815260200160028201548152602001600382015481525050908060070160405180606001604052908160008201548152602001600182015481526020016002820160009054906101000a900460ff1615151515815250509080600a01549080600b0160009054906101000a900460ff169080600c01805461110d90611ef9565b80601f016020809104026020016040519081016040528092919081815260200182805461113990611ef9565b80156111865780601f1061115b57610100808354040283529160200191611186565b820191906000526020600020905b81548152906001019060200180831161116957829003601f168201915b5050505050905086565b60008054906101000a900473ffffffffffffffffffffffffffffffffffffffff1681565b6000836003016000015483101580156111d4575083600301600101548311155b80156111e7575083600301600201548210155b80156111fa575083600301600301548211155b90509392505050565b8115611218576112138382611228565b611223565b6112228382611389565b5b505050565b8160070160000154471015611272576040517f08c379a0000000000000000000000000000000000000000000000000000000008152600401611269906124bd565b60405180910390fd5b8160000160010160009054906101000a900473ffffffffffffffffffffffffffffffffffffffff1673ffffffffffffffffffffffffffffffffffffffff166108fc83600701600001549081150290604051600060405180830381858888f193505050501580156112e6573d6000803e3d6000fd5b5060018260070160020160006101000a81548160ff0219169083151502179055508160000160010160009054906101000a900473ffffffffffffffffffffffffffffffffffffffff1673ffffffffffffffffffffffffffffffffffffffff167fd89638493bbe07389db88d96bf7af8577df2ccb322252b8b5a2966d7442465fd83600701600001548360405161137d9291906120da565b60405180910390a25050565b81600701600001544710156113d3576040517f08c379a00000000000000000000000000000000000000000000000000000000081526004016113ca906124bd565b60405180910390fd5b8160000160020160009054906101000a900473ffffffffffffffffffffffffffffffffffffffff1673ffffffffffffffffffffffffffffffffffffffff166108fc83600701600001549081150290604051600060405180830381858888f19350505050158015611447573d6000803e3d6000fd5b5060008260070160020160006101000a81548160ff0219169083151502179055508160000160020160009054906101000a900473ffffffffffffffffffffffffffffffffffffffff1673ffffffffffffffffffffffffffffffffffffffff167f6beddca67ecc13dde89ebc0bcc02269ac49d0d8f51903a6e9c2621acda7f631e8360070160000154836040516114de9291906120da565b60405180910390a25050565b8280546114f690611ef9565b90600052602060002090601f016020900481019282611518576000855561155f565b82601f1061153157805160ff191683800117855561155f565b8280016001018555821561155f579182015b8281111561155e578251825591602001919060010190611543565b5b50905061156c91906116eb565b5090565b50805461157c90611ef9565b6000825580601f1061158e57506115ad565b601f0160209004906000526020600020908101906115ac91906116eb565b5b50565b8280546115bc90611ef9565b90600052602060002090601f0160209004810192826115de576000855561162c565b82601f106115ef578054855561162c565b8280016001018555821561162c57600052602060002091601f016020900482015b8281111561162b578254825591600101919060010190611610565b5b50905061163991906116eb565b5090565b604051806101a00160405280600073ffffffffffffffffffffffffffffffffffffffff168152602001600073ffffffffffffffffffffffffffffffffffffffff168152602001600073ffffffffffffffffffffffffffffffffffffffff16815260200160008152602001600081526020016000815260200160008152602001600081526020016000815260200160008152602001600015158152602001600015158152602001606081525090565b5b808211156117045760008160009055506001016116ec565b5090565b6000604051905090565b600080fd5b600080fd5b6000819050919050565b61172f8161171c565b811461173a57600080fd5b50565b60008135905061174c81611726565b92915050565b60006020828403121561176857611767611712565b5b60006117768482850161173d565b91505092915050565b600081519050919050565b600082825260208201905092915050565b60005b838110156117b957808201518184015260208101905061179e565b838111156117c8576000848401525b50505050565b6000601f19601f8301169050919050565b60006117ea8261177f565b6117f4818561178a565b935061180481856020860161179b565b61180d816117ce565b840191505092915050565b6000602082019050818103600083015261183281846117df565b905092915050565b600073ffffffffffffffffffffffffffffffffffffffff82169050919050565b60006118658261183a565b9050919050565b6118758161185a565b811461188057600080fd5b50565b6000813590506118928161186c565b92915050565b600080fd5b600080fd5b7f4e487b7100000000000000000000000000000000000000000000000000000000600052604160045260246000fd5b6118da826117ce565b810181811067ffffffffffffffff821117156118f9576118f86118a2565b5b80604052505050565b600061190c611708565b905061191882826118d1565b919050565b600067ffffffffffffffff821115611938576119376118a2565b5b611941826117ce565b9050602081019050919050565b82818337600083830152505050565b600061197061196b8461191d565b611902565b90508281526020810184848401111561198c5761198b61189d565b5b61199784828561194e565b509392505050565b600082601f8301126119b4576119b3611898565b5b81356119c484826020860161195d565b91505092915050565b60008060008060008060008060006101208a8c0312156119f0576119ef611712565b5b60006119fe8c828d01611883565b9950506020611a0f8c828d01611883565b9850506040611a208c828d0161173d565b9750506060611a318c828d0161173d565b9650506080611a428c828d0161173d565b95505060a0611a538c828d0161173d565b94505060c0611a648c828d0161173d565b93505060e0611a758c828d0161173d565b9250506101008a013567ffffffffffffffff811115611a9757611a96611717565b5b611aa38c828d0161199f565b9150509295985092959850929598565b60008060008060808587031215611acd57611acc611712565b5b600085013567ffffffffffffffff811115611aeb57611aea611717565b5b611af78782880161199f565b9450506020611b088782880161173d565b9350506040611b198782880161173d565b9250506060611b2a8782880161173d565b91505092959194509250565b600060208284031215611b4c57611b4b611712565b5b600082013567ffffffffffffffff811115611b6a57611b69611717565b5b611b768482850161199f565b91505092915050565b611b888161185a565b82525050565b611b978161171c565b82525050565b60008115159050919050565b611bb281611b9d565b82525050565b600082825260208201905092915050565b6000611bd48261177f565b611bde8185611bb8565b9350611bee81856020860161179b565b611bf7816117ce565b840191505092915050565b60006101a083016000830151611c1b6000860182611b7f565b506020830151611c2e6020860182611b7f565b506040830151611c416040860182611b7f565b506060830151611c546060860182611b8e565b506080830151611c676080860182611b8e565b5060a0830151611c7a60a0860182611b8e565b5060c0830151611c8d60c0860182611b8e565b5060e0830151611ca060e0860182611b8e565b50610100830151611cb5610100860182611b8e565b50610120830151611cca610120860182611b8e565b50610140830151611cdf610140860182611ba9565b50610160830151611cf4610160860182611ba9565b50610180830151848203610180860152611d0e8282611bc9565b9150508091505092915050565b60006020820190508181036000830152611d358184611c02565b905092915050565b606082016000820151611d536000850182611b7f565b506020820151611d666020850182611b7f565b506040820151611d796040850182611b7f565b50505050565b608082016000820151611d956000850182611b8e565b506020820151611da86020850182611b8e565b506040820151611dbb6040850182611b8e565b506060820151611dce6060850182611b8e565b50505050565b606082016000820151611dea6000850182611b8e565b506020820151611dfd6020850182611b8e565b506040820151611e106040850182611ba9565b50505050565b611e1f8161171c565b82525050565b611e2e81611b9d565b82525050565b60006101a082019050611e4a6000830189611d3d565b611e576060830188611d7f565b611e6460e0830187611dd4565b611e72610140830186611e16565b611e80610160830185611e25565b818103610180830152611e9381846117df565b9050979650505050505050565b611ea98161185a565b82525050565b6000602082019050611ec46000830184611ea0565b92915050565b7f4e487b7100000000000000000000000000000000000000000000000000000000600052602260045260246000fd5b60006002820490506001821680611f1157607f821691505b602082108103611f2457611f23611eca565b5b50919050565b600081905092915050565b6000611f408261177f565b611f4a8185611f2a565b9350611f5a81856020860161179b565b80840191505092915050565b6000611f728284611f35565b915081905092915050565b7f44656c697665727920494420616c726561647920696e20757365000000000000600082015250565b6000611fb3601a8361178a565b9150611fbe82611f7d565b602082019050919050565b60006020820190508181036000830152611fe281611fa6565b9050919050565b7f4e487b7100000000000000000000000000000000000000000000000000000000600052601160045260246000fd5b60006120238261171c565b915061202e8361171c565b9250827fffffffffffffffffffffffffffffffffffffffffffffffffffffffffffffffff0382111561206357612062611fe9565b5b828201905092915050565b7f496e636f72726563742045746865722073656e74000000000000000000000000600082015250565b60006120a460148361178a565b91506120af8261206e565b602082019050919050565b600060208201905081810360008301526120d381612097565b9050919050565b60006040820190506120ef6000830185611e16565b818103602083015261210181846117df565b90509392505050565b600060608201905061211f6000830186611e16565b61212c6020830185611e16565b818103604083015261213e81846117df565b9050949350505050565b7f4f6e6c792074686520636c69656e742063616e20636f6d706c6574652074686560008201527f2064656c69766572790000000000000000000000000000000000000000000000602082015250565b60006121a460298361178a565b91506121af82612148565b604082019050919050565b600060208201905081810360008301526121d381612197565b9050919050565b7f4e6f206163746976652064656c697665727920746f20636f6d706c6574650000600082015250565b6000612210601e8361178a565b915061221b826121da565b602082019050919050565b6000602082019050818103600083015261223f81612203565b9050919050565b7f5061796d656e7420616c72656164792072656c65617365640000000000000000600082015250565b600061227c60188361178a565b915061228782612246565b602082019050919050565b600060208201905081810360008301526122ab8161226f565b9050919050565b60006080820190506122c76000830187611e16565b6122d46020830186611e25565b81810360408301526122e681856117df565b905081810360608301526122fa81846117df565b905095945050505050565b7f4f6e6c792061646d696e2063616e20706572666f726d2074686973206163746960008201527f6f6e000000000000000000000000000000000000000000000000000000000000602082015250565b600061236160228361178a565b915061236c82612305565b604082019050919050565b6000602082019050818103600083015261239081612354565b9050919050565b7f4e487b7100000000000000000000000000000000000000000000000000000000600052603260045260246000fd5b60006123d18261171c565b91506123dc8361171c565b9250828210156123ef576123ee611fe9565b5b828203905092915050565b7f4e487b7100000000000000000000000000000000000000000000000000000000600052603160045260246000fd5b60006124348261171c565b91507fffffffffffffffffffffffffffffffffffffffffffffffffffffffffffffffff820361246657612465611fe9565b5b600182019050919050565b7f496e73756666696369656e742062616c616e636520696e20636f6e7472616374600082015250565b60006124a760208361178a565b91506124b282612471565b602082019050919050565b600060208201905081810360008301526124d68161249a565b905091905056fea2646970667358221220670aa0828029a387c9ea7491362002c49de775958120b0294cf8b268591523fa64736f6c634300080d0033",
  "immutableReferences": {},
  "source": "// SPDX-License-Identifier: MIT\npragma solidity ^0.8.13;\n\ncontract SmartDelivery {\n    struct Requirements {\n        uint256 minTemp;\n        uint256 maxTemp;\n        uint256 minHumidity;\n        uint256 maxHumidity;\n    }\n\n    struct Payment {\n        uint256 deliveryPrice;\n        uint256 productPrice;\n        bool paymentReleased;\n    }\n\n    struct Parties {\n        address provider;\n        address deliverer;\n        address client;\n    }\n\n    struct Delivery {\n        Parties parties;\n        Requirements requirements;\n        Payment payment;\n        uint256 endTime;\n        bool active;\n        string deliveryId;\n    }\n\n    struct DeliveryDetails {\n        address provider;\n        address deliverer;\n        address client;\n        uint256 minTemp;\n        uint256 maxTemp;\n        uint256 minHumidity;\n        uint256 maxHumidity;\n        uint256 deliveryPrice;\n        uint256 productPrice;\n        uint256 endTime;\n        bool paymentReleased;\n        bool active;\n        string deliveryId;\n    }\n\n    address public admin;\n    mapping(string => Delivery) public deliveries;\n    string[] public deliveryIds;  // Auxiliary array to track delivery IDs\n\n    event DeliveryStarted(address indexed provider, address indexed deliverer, address indexed client, uint256 deliveryPrice, uint256 productPrice, string deliveryId);\n    event DeliveryCompleted(uint256 endTime, bool success, string message, string deliveryId);\n    event PaymentReleased(address indexed deliverer, uint256 amount, string deliveryId);\n    event PaymentRefunded(address indexed client, uint256 amount, string deliveryId);\n    event ProviderPaid(address indexed provider, uint256 amount, string deliveryId);\n    event DeliveryCleared(string deliveryId);\n\n    modifier onlyAdmin() {\n        require(msg.sender == admin, \"Only admin can perform this action\");\n        _;\n    }\n\n    constructor(address _admin) {\n        require(_admin != address(0), \"Invalid admin address\");\n        admin = _admin;\n    }\n\n    function startDelivery(\n        address _provider,\n        address _deliverer,\n        uint256 _minTemp,\n        uint256 _maxTemp,\n        uint256 _minHumidity,\n        uint256 _maxHumidity,\n        uint256 _productPrice,\n        uint256 _deliveryPrice,\n        string memory _deliveryId\n    ) public payable {\n        require(!deliveries[_deliveryId].active, \"Delivery ID already in use\");\n        require(msg.value == _productPrice + _deliveryPrice, \"Incorrect Ether sent\");\n\n        // Transfer the product price to the provider immediately\n        payable(_provider).transfer(_productPrice);\n        emit ProviderPaid(_provider, _productPrice, _deliveryId);\n\n        deliveries[_deliveryId] = Delivery({\n            parties: Parties({\n                client: msg.sender,\n                deliverer: _deliverer,\n                provider: _provider\n            }),\n            requirements: Requirements({\n                minTemp: _minTemp,\n                maxTemp: _maxTemp,\n                minHumidity: _minHumidity,\n                maxHumidity: _maxHumidity\n            }),\n            payment: Payment({\n                deliveryPrice: _deliveryPrice,\n                productPrice: _productPrice,\n                paymentReleased: false\n            }),\n            endTime: 0,\n            active: true,\n            deliveryId: _deliveryId\n        });\n\n        deliveryIds.push(_deliveryId);\n        emit DeliveryStarted(msg.sender, _deliverer, _provider, _deliveryPrice, _productPrice, _deliveryId);\n    }\n\n    function completeDelivery(\n        string memory _deliveryId,\n        uint256 _endTime,\n        uint256 _avgTemp,\n        uint256 _avgHumidity\n    ) public {\n        Delivery storage delivery = deliveries[_deliveryId];\n        require(msg.sender == delivery.parties.client, \"Only the client can complete the delivery\");\n        require(delivery.active, \"No active delivery to complete\");\n        require(!delivery.payment.paymentReleased, \"Payment already released\");\n\n        delivery.endTime = _endTime;\n        delivery.active = false;\n\n        bool success = checkDeliveryConditions(delivery, _avgTemp, _avgHumidity);\n        handlePayment(delivery, success, _deliveryId);\n\n        emit DeliveryCompleted(delivery.endTime, success, success ? \"Delivery conditions met\" : \"Delivery conditions not met\", _deliveryId);\n    }\n\n    function checkDeliveryConditions(Delivery storage delivery, uint256 avgTemp, uint256 avgHumidity) internal view returns (bool) {\n        return avgTemp >= delivery.requirements.minTemp && avgTemp <= delivery.requirements.maxTemp &&\n               avgHumidity >= delivery.requirements.minHumidity && avgHumidity <= delivery.requirements.maxHumidity;\n    }\n\n    function handlePayment(Delivery storage delivery, bool success, string memory deliveryId) internal {\n        if (success) {\n            releasePayment(delivery, deliveryId);\n        } else {\n            refundPayment(delivery, deliveryId);\n        }\n    }\n\n    function releasePayment(Delivery storage delivery, string memory deliveryId) internal {\n        require(address(this).balance >= delivery.payment.deliveryPrice, \"Insufficient balance in contract\");\n\n        payable(delivery.parties.deliverer).transfer(delivery.payment.deliveryPrice);\n        delivery.payment.paymentReleased = true;\n        emit PaymentReleased(delivery.parties.deliverer, delivery.payment.deliveryPrice, deliveryId);\n    }\n\n    function refundPayment(Delivery storage delivery, string memory deliveryId) internal {\n        require(address(this).balance >= delivery.payment.deliveryPrice, \"Insufficient balance in contract\");\n\n        payable(delivery.parties.client).transfer(delivery.payment.deliveryPrice);\n        delivery.payment.paymentReleased = false;\n        emit PaymentRefunded(delivery.parties.client, delivery.payment.deliveryPrice, deliveryId);\n    }\n\n    function clearOldDeliveries() public onlyAdmin {\n        uint256 currentTime = block.timestamp;\n        uint256 fiveMinutes = 5 * 60;\n        uint256 i = 0;\n\n        while (i < deliveryIds.length) {\n            string memory deliveryId = deliveryIds[i];\n            Delivery storage delivery = deliveries[deliveryId];\n\n            if (!delivery.active && currentTime > delivery.endTime + fiveMinutes) {\n                delete deliveries[deliveryId];  // Delete the delivery data from mapping\n                deliveryIds[i] = deliveryIds[deliveryIds.length - 1];\n                deliveryIds.pop();\n                emit DeliveryCleared(deliveryId);\n            } else {\n                i++;\n            }\n        }\n    }\n\n    function getDelivery(string memory _deliveryId) public view returns (DeliveryDetails memory) {\n        Delivery storage delivery = deliveries[_deliveryId];\n        return DeliveryDetails({\n            provider: delivery.parties.provider,\n            deliverer: delivery.parties.deliverer,\n            client: delivery.parties.client,\n            minTemp: delivery.requirements.minTemp,\n            maxTemp: delivery.requirements.maxTemp,\n            minHumidity: delivery.requirements.minHumidity,\n            maxHumidity: delivery.requirements.maxHumidity,\n            deliveryPrice: delivery.payment.deliveryPrice,\n            productPrice: delivery.payment.productPrice,\n            endTime: delivery.endTime,\n            paymentReleased: delivery.payment.paymentReleased,\n            active: delivery.active,\n            deliveryId: delivery.deliveryId\n        });\n    }\n}\n",
  "sourcePath": "/home/roman/PycharmProjects/smart-delivery/contracts/SmartDelivery.sol",
  "compiler": {
    "name": "solc",
    "version": "0.8.13+commit.abaa5c0e.Emscripten.clang"
  },
  "schemaVersion": "3.4.4",
  "updatedAt": "2024-06-06T08:54:59.306Z",
  "networkType": "ethereum",
  "devdoc": {
    "kind": "dev",
    "methods": {},
    "version": 1
  },
  "userdoc": {
    "kind": "user",
    "methods": {},
    "version": 1
  }
}