{
  "contractName": "SmartDelivery",
  "abi": [
    {
      "anonymous": false,
      "inputs": [
        {
          "indexed": false,
          "internalType": "uint256",
          "name": "endTime",
          "type": "uint256"
        },
        {
          "indexed": false,
          "internalType": "bool",
          "name": "success",
          "type": "bool"
        },
        {
          "indexed": false,
          "internalType": "string",
          "name": "message",
          "type": "string"
        },
        {
          "indexed": false,
          "internalType": "string",
          "name": "deliveryId",
          "type": "string"
        }
      ],
      "name": "DeliveryCompleted",
      "type": "event"
    },
    {
      "anonymous": false,
      "inputs": [
        {
          "indexed": true,
          "internalType": "address",
          "name": "provider",
          "type": "address"
        },
        {
          "indexed": true,
          "internalType": "address",
          "name": "customer",
          "type": "address"
        },
        {
          "indexed": false,
          "internalType": "uint256",
          "name": "deposit",
          "type": "uint256"
        },
        {
          "indexed": false,
          "internalType": "string",
          "name": "deliveryId",
          "type": "string"
        }
      ],
      "name": "DeliveryStarted",
      "type": "event"
    },
    {
      "anonymous": false,
      "inputs": [
        {
          "indexed": true,
          "internalType": "address",
          "name": "provider",
          "type": "address"
        },
        {
          "indexed": false,
          "internalType": "uint256",
          "name": "amount",
          "type": "uint256"
        },
        {
          "indexed": false,
          "internalType": "string",
          "name": "deliveryId",
          "type": "string"
        }
      ],
      "name": "PaymentRefunded",
      "type": "event"
    },
    {
      "anonymous": false,
      "inputs": [
        {
          "indexed": true,
          "internalType": "address",
          "name": "customer",
          "type": "address"
        },
        {
          "indexed": false,
          "internalType": "uint256",
          "name": "amount",
          "type": "uint256"
        },
        {
          "indexed": false,
          "internalType": "string",
          "name": "deliveryId",
          "type": "string"
        }
      ],
      "name": "PaymentReleased",
      "type": "event"
    },
    {
      "inputs": [
        {
          "internalType": "string",
          "name": "",
          "type": "string"
        }
      ],
      "name": "deliveries",
      "outputs": [
        {
          "internalType": "address",
          "name": "provider",
          "type": "address"
        },
        {
          "internalType": "address",
          "name": "customer",
          "type": "address"
        },
        {
          "internalType": "uint256",
          "name": "requiredMinTemp",
          "type": "uint256"
        },
        {
          "internalType": "uint256",
          "name": "requiredMaxTemp",
          "type": "uint256"
        },
        {
          "internalType": "uint256",
          "name": "requiredMinHumidity",
          "type": "uint256"
        },
        {
          "internalType": "uint256",
          "name": "requiredMaxHumidity",
          "type": "uint256"
        },
        {
          "internalType": "uint256",
          "name": "deposit",
          "type": "uint256"
        },
        {
          "internalType": "uint256",
          "name": "endTime",
          "type": "uint256"
        },
        {
          "internalType": "bool",
          "name": "paymentReleased",
          "type": "bool"
        },
        {
          "internalType": "bool",
          "name": "active",
          "type": "bool"
        },
        {
          "internalType": "string",
          "name": "deliveryId",
          "type": "string"
        }
      ],
      "stateMutability": "view",
      "type": "function",
      "constant": true
    },
    {
      "inputs": [
        {
          "internalType": "address",
          "name": "_customer",
          "type": "address"
        },
        {
          "internalType": "uint256",
          "name": "_requiredMinTemp",
          "type": "uint256"
        },
        {
          "internalType": "uint256",
          "name": "_requiredMaxTemp",
          "type": "uint256"
        },
        {
          "internalType": "uint256",
          "name": "_requiredMinHumidity",
          "type": "uint256"
        },
        {
          "internalType": "uint256",
          "name": "_requiredMaxHumidity",
          "type": "uint256"
        },
        {
          "internalType": "string",
          "name": "_deliveryId",
          "type": "string"
        }
      ],
      "name": "startDelivery",
      "outputs": [],
      "stateMutability": "payable",
      "type": "function",
      "payable": true
    },
    {
      "inputs": [
        {
          "internalType": "string",
          "name": "_deliveryId",
          "type": "string"
        },
        {
          "internalType": "uint256",
          "name": "_endTime",
          "type": "uint256"
        },
        {
          "internalType": "uint256",
          "name": "_avgTemp",
          "type": "uint256"
        },
        {
          "internalType": "uint256",
          "name": "_avgHumidity",
          "type": "uint256"
        }
      ],
      "name": "completeDelivery",
      "outputs": [],
      "stateMutability": "nonpayable",
      "type": "function"
    },
    {
      "inputs": [
        {
          "internalType": "string",
          "name": "_deliveryId",
          "type": "string"
        }
      ],
      "name": "getDelivery",
      "outputs": [
        {
          "internalType": "address",
          "name": "provider",
          "type": "address"
        },
        {
          "internalType": "address",
          "name": "customer",
          "type": "address"
        },
        {
          "internalType": "uint256",
          "name": "requiredMinTemp",
          "type": "uint256"
        },
        {
          "internalType": "uint256",
          "name": "requiredMaxTemp",
          "type": "uint256"
        },
        {
          "internalType": "uint256",
          "name": "requiredMinHumidity",
          "type": "uint256"
        },
        {
          "internalType": "uint256",
          "name": "requiredMaxHumidity",
          "type": "uint256"
        },
        {
          "internalType": "uint256",
          "name": "deposit",
          "type": "uint256"
        },
        {
          "internalType": "uint256",
          "name": "endTime",
          "type": "uint256"
        },
        {
          "internalType": "bool",
          "name": "paymentReleased",
          "type": "bool"
        },
        {
          "internalType": "bool",
          "name": "active",
          "type": "bool"
        },
        {
          "internalType": "string",
          "name": "deliveryId",
          "type": "string"
        }
      ],
      "stateMutability": "view",
      "type": "function",
      "constant": true
    }
  ],
  "bytecode": "0x608060405234801561001057600080fd5b506113b4806100206000396000f3fe60806040526004361061003f5760003560e01c80639432096a14610044578063a2431c331461006d578063d83a7cf914610089578063e1ca449f146100d0575b600080fd5b34801561005057600080fd5b5061006b60048036038101906100669190610d2c565b610117565b005b61008760048036038101906100829190610e0d565b610585565b005b34801561009557600080fd5b506100b060048036038101906100ab9190610eb6565b610833565b6040516100c79b9a99989796959493929190610fc0565b60405180910390f35b3480156100dc57600080fd5b506100f760048036038101906100f29190610eb6565b6109a7565b60405161010e9b9a99989796959493929190610fc0565b60405180910390f35b6000808560405161012891906110ae565b908152602001604051809103902090508060010160009054906101000a900473ffffffffffffffffffffffffffffffffffffffff1673ffffffffffffffffffffffffffffffffffffffff163373ffffffffffffffffffffffffffffffffffffffff16146101ca576040517f08c379a00000000000000000000000000000000000000000000000000000000081526004016101c190611137565b60405180910390fd5b8060080160019054906101000a900460ff1661021b576040517f08c379a0000000000000000000000000000000000000000000000000000000008152600401610212906111a3565b60405180910390fd5b8060080160009054906101000a900460ff161561026d576040517f08c379a00000000000000000000000000000000000000000000000000000000081526004016102649061120f565b60405180910390fd5b83816007018190555060008160080160016101000a81548160ff0219169083151502179055506000816002015484101580156102ad575081600301548411155b80156102bd575081600401548310155b80156102cd575081600501548311155b905080156103de578160010160009054906101000a900473ffffffffffffffffffffffffffffffffffffffff1673ffffffffffffffffffffffffffffffffffffffff166108fc83600601549081150290604051600060405180830381858888f19350505050158015610343573d6000803e3d6000fd5b5060018260080160006101000a81548160ff0219169083151502179055508160010160009054906101000a900473ffffffffffffffffffffffffffffffffffffffff1673ffffffffffffffffffffffffffffffffffffffff167fd89638493bbe07389db88d96bf7af8577df2ccb322252b8b5a2966d7442465fd8360060154886040516103d192919061122f565b60405180910390a26104c6565b8160000160009054906101000a900473ffffffffffffffffffffffffffffffffffffffff1673ffffffffffffffffffffffffffffffffffffffff166108fc83600601549081150290604051600060405180830381858888f1935050505015801561044c573d6000803e3d6000fd5b508160000160009054906101000a900473ffffffffffffffffffffffffffffffffffffffff1673ffffffffffffffffffffffffffffffffffffffff167f6beddca67ecc13dde89ebc0bcc02269ac49d0d8f51903a6e9c2621acda7f631e8360060154886040516104bd92919061122f565b60405180910390a25b7fa403ae9a63c100b1885df4b00c8e03fd2d366b27704ed8a562cef512cc60a2e38260070154828361052d576040518060400160405280601b81526020017f44656c697665727920636f6e646974696f6e73206e6f74206d65740000000000815250610564565b6040518060400160405280601781526020017f44656c697665727920636f6e646974696f6e73206d65740000000000000000008152505b89604051610575949392919061125f565b60405180910390a1505050505050565b6000151560008260405161059991906110ae565b908152602001604051809103902060080160019054906101000a900460ff161515146105fa576040517f08c379a00000000000000000000000000000000000000000000000000000000081526004016105f1906112fe565b60405180910390fd5b6040518061016001604052803373ffffffffffffffffffffffffffffffffffffffff1681526020018773ffffffffffffffffffffffffffffffffffffffff168152602001868152602001858152602001848152602001838152602001348152602001600081526020016000151581526020016001151581526020018281525060008260405161068991906110ae565b908152602001604051809103902060008201518160000160006101000a81548173ffffffffffffffffffffffffffffffffffffffff021916908373ffffffffffffffffffffffffffffffffffffffff16021790555060208201518160010160006101000a81548173ffffffffffffffffffffffffffffffffffffffff021916908373ffffffffffffffffffffffffffffffffffffffff16021790555060408201518160020155606082015181600301556080820151816004015560a0820151816005015560c0820151816006015560e082015181600701556101008201518160080160006101000a81548160ff0219169083151502179055506101208201518160080160016101000a81548160ff0219169083151502179055506101408201518160090190805190602001906107c0929190610af9565b509050508573ffffffffffffffffffffffffffffffffffffffff163373ffffffffffffffffffffffffffffffffffffffff167f91ac133269bf9c0cd4ad71e2acbd253ef230224bac1a79bb77651cb6463c07a7348460405161082392919061122f565b60405180910390a3505050505050565b60008060008060008060008060008060606000808d60405161085591906110ae565b908152602001604051809103902090508060000160009054906101000a900473ffffffffffffffffffffffffffffffffffffffff168160010160009054906101000a900473ffffffffffffffffffffffffffffffffffffffff168260020154836003015484600401548560050154866006015487600701548860080160009054906101000a900460ff168960080160019054906101000a900460ff168a6009018080546109019061134d565b80601f016020809104026020016040519081016040528092919081815260200182805461092d9061134d565b801561097a5780601f1061094f5761010080835404028352916020019161097a565b820191906000526020600020905b81548152906001019060200180831161095d57829003601f168201915b505050505090509b509b509b509b509b509b509b509b509b509b509b505091939597999b90929496989a50565b6000818051602081018201805184825260208301602085012081835280955050505050506000915090508060000160009054906101000a900473ffffffffffffffffffffffffffffffffffffffff16908060010160009054906101000a900473ffffffffffffffffffffffffffffffffffffffff16908060020154908060030154908060040154908060050154908060060154908060070154908060080160009054906101000a900460ff16908060080160019054906101000a900460ff1690806009018054610a769061134d565b80601f0160208091040260200160405190810160405280929190818152602001828054610aa29061134d565b8015610aef5780601f10610ac457610100808354040283529160200191610aef565b820191906000526020600020905b815481529060010190602001808311610ad257829003601f168201915b505050505090508b565b828054610b059061134d565b90600052602060002090601f016020900481019282610b275760008555610b6e565b82601f10610b4057805160ff1916838001178555610b6e565b82800160010185558215610b6e579182015b82811115610b6d578251825591602001919060010190610b52565b5b509050610b7b9190610b7f565b5090565b5b80821115610b98576000816000905550600101610b80565b5090565b6000604051905090565b600080fd5b600080fd5b600080fd5b600080fd5b6000601f19601f8301169050919050565b7f4e487b7100000000000000000000000000000000000000000000000000000000600052604160045260246000fd5b610c0382610bba565b810181811067ffffffffffffffff82111715610c2257610c21610bcb565b5b80604052505050565b6000610c35610b9c565b9050610c418282610bfa565b919050565b600067ffffffffffffffff821115610c6157610c60610bcb565b5b610c6a82610bba565b9050602081019050919050565b82818337600083830152505050565b6000610c99610c9484610c46565b610c2b565b905082815260208101848484011115610cb557610cb4610bb5565b5b610cc0848285610c77565b509392505050565b600082601f830112610cdd57610cdc610bb0565b5b8135610ced848260208601610c86565b91505092915050565b6000819050919050565b610d0981610cf6565b8114610d1457600080fd5b50565b600081359050610d2681610d00565b92915050565b60008060008060808587031215610d4657610d45610ba6565b5b600085013567ffffffffffffffff811115610d6457610d63610bab565b5b610d7087828801610cc8565b9450506020610d8187828801610d17565b9350506040610d9287828801610d17565b9250506060610da387828801610d17565b91505092959194509250565b600073ffffffffffffffffffffffffffffffffffffffff82169050919050565b6000610dda82610daf565b9050919050565b610dea81610dcf565b8114610df557600080fd5b50565b600081359050610e0781610de1565b92915050565b60008060008060008060c08789031215610e2a57610e29610ba6565b5b6000610e3889828a01610df8565b9650506020610e4989828a01610d17565b9550506040610e5a89828a01610d17565b9450506060610e6b89828a01610d17565b9350506080610e7c89828a01610d17565b92505060a087013567ffffffffffffffff811115610e9d57610e9c610bab565b5b610ea989828a01610cc8565b9150509295509295509295565b600060208284031215610ecc57610ecb610ba6565b5b600082013567ffffffffffffffff811115610eea57610ee9610bab565b5b610ef684828501610cc8565b91505092915050565b610f0881610dcf565b82525050565b610f1781610cf6565b82525050565b60008115159050919050565b610f3281610f1d565b82525050565b600081519050919050565b600082825260208201905092915050565b60005b83811015610f72578082015181840152602081019050610f57565b83811115610f81576000848401525b50505050565b6000610f9282610f38565b610f9c8185610f43565b9350610fac818560208601610f54565b610fb581610bba565b840191505092915050565b600061016082019050610fd6600083018e610eff565b610fe3602083018d610eff565b610ff0604083018c610f0e565b610ffd606083018b610f0e565b61100a608083018a610f0e565b61101760a0830189610f0e565b61102460c0830188610f0e565b61103160e0830187610f0e565b61103f610100830186610f29565b61104d610120830185610f29565b8181036101408301526110608184610f87565b90509c9b505050505050505050505050565b600081905092915050565b600061108882610f38565b6110928185611072565b93506110a2818560208601610f54565b80840191505092915050565b60006110ba828461107d565b915081905092915050565b7f4f6e6c792074686520637573746f6d65722063616e20636f6d706c657465207460008201527f68652064656c6976657279000000000000000000000000000000000000000000602082015250565b6000611121602b83610f43565b915061112c826110c5565b604082019050919050565b6000602082019050818103600083015261115081611114565b9050919050565b7f4e6f206163746976652064656c697665727920746f20636f6d706c6574650000600082015250565b600061118d601e83610f43565b915061119882611157565b602082019050919050565b600060208201905081810360008301526111bc81611180565b9050919050565b7f5061796d656e7420616c72656164792072656c65617365640000000000000000600082015250565b60006111f9601883610f43565b9150611204826111c3565b602082019050919050565b60006020820190508181036000830152611228816111ec565b9050919050565b60006040820190506112446000830185610f0e565b81810360208301526112568184610f87565b90509392505050565b60006080820190506112746000830187610f0e565b6112816020830186610f29565b81810360408301526112938185610f87565b905081810360608301526112a78184610f87565b905095945050505050565b7f44656c697665727920494420616c726561647920696e20757365000000000000600082015250565b60006112e8601a83610f43565b91506112f3826112b2565b602082019050919050565b60006020820190508181036000830152611317816112db565b9050919050565b7f4e487b7100000000000000000000000000000000000000000000000000000000600052602260045260246000fd5b6000600282049050600182168061136557607f821691505b6020821081036113785761137761131e565b5b5091905056fea264697066735822122021fb8c1f734aca6a35a0160004a851fbfa7dd1e631b493d906934e484530a41e64736f6c634300080d0033",
  "immutableReferences": {},
  "source": "pragma solidity ^0.8.13;\n\ncontract SmartDelivery {\n    struct Delivery {\n        address provider;\n        address customer;\n        uint256 requiredMinTemp;\n        uint256 requiredMaxTemp;\n        uint256 requiredMinHumidity;\n        uint256 requiredMaxHumidity;\n        uint256 deposit;\n        uint256 endTime;\n        bool paymentReleased;\n        bool active;\n        string deliveryId;\n    }\n\n    mapping(string => Delivery) public deliveries;\n\n    event DeliveryStarted(address indexed provider, address indexed customer, uint256 deposit, string deliveryId);\n    event DeliveryCompleted(uint256 endTime, bool success, string message, string deliveryId);\n    event PaymentReleased(address indexed customer, uint256 amount, string deliveryId);\n    event PaymentRefunded(address indexed provider, uint256 amount, string deliveryId);\n\n    function startDelivery(\n        address _customer,\n        uint256 _requiredMinTemp,\n        uint256 _requiredMaxTemp,\n        uint256 _requiredMinHumidity,\n        uint256 _requiredMaxHumidity,\n        string memory _deliveryId\n    ) public payable {\n        require(deliveries[_deliveryId].active == false, \"Delivery ID already in use\");\n\n        deliveries[_deliveryId] = Delivery({\n            provider: msg.sender,\n            customer: _customer,\n            requiredMinTemp: _requiredMinTemp,\n            requiredMaxTemp: _requiredMaxTemp,\n            requiredMinHumidity: _requiredMinHumidity,\n            requiredMaxHumidity: _requiredMaxHumidity,\n            deposit: msg.value,\n            endTime: 0,\n            paymentReleased: false,\n            active: true,\n            deliveryId: _deliveryId\n        });\n\n        emit DeliveryStarted(msg.sender, _customer, msg.value, _deliveryId);\n    }\n\n    function completeDelivery(\n        string memory _deliveryId,\n        uint256 _endTime,\n        uint256 _avgTemp,\n        uint256 _avgHumidity\n    ) public {\n        Delivery storage delivery = deliveries[_deliveryId];\n        require(msg.sender == delivery.customer, \"Only the customer can complete the delivery\");\n        require(delivery.active, \"No active delivery to complete\");\n        require(!delivery.paymentReleased, \"Payment already released\");\n\n        delivery.endTime = _endTime;\n        delivery.active = false;\n        bool success = _avgTemp >= delivery.requiredMinTemp && _avgTemp <= delivery.requiredMaxTemp &&\n                       _avgHumidity >= delivery.requiredMinHumidity && _avgHumidity <= delivery.requiredMaxHumidity;\n\n        if (success) {\n            payable(delivery.customer).transfer(delivery.deposit);\n            delivery.paymentReleased = true;\n            emit PaymentReleased(delivery.customer, delivery.deposit, _deliveryId);\n        } else {\n            payable(delivery.provider).transfer(delivery.deposit);\n            emit PaymentRefunded(delivery.provider, delivery.deposit, _deliveryId);\n        }\n\n        emit DeliveryCompleted(delivery.endTime, success, success ? \"Delivery conditions met\" : \"Delivery conditions not met\", _deliveryId);\n    }\n\n    function getDelivery(string memory _deliveryId) public view returns (\n        address provider,\n        address customer,\n        uint256 requiredMinTemp,\n        uint256 requiredMaxTemp,\n        uint256 requiredMinHumidity,\n        uint256 requiredMaxHumidity,\n        uint256 deposit,\n        uint256 endTime,\n        bool paymentReleased,\n        bool active,\n        string memory deliveryId\n    ) {\n        Delivery storage delivery = deliveries[_deliveryId];\n        return (\n            delivery.provider,\n            delivery.customer,\n            delivery.requiredMinTemp,\n            delivery.requiredMaxTemp,\n            delivery.requiredMinHumidity,\n            delivery.requiredMaxHumidity,\n            delivery.deposit,\n            delivery.endTime,\n            delivery.paymentReleased,\n            delivery.active,\n            delivery.deliveryId\n        );\n    }\n}\n",
  "sourcePath": "/home/roman/PycharmProjects/smart-delivery/contracts/SmartDelivery.sol",
  "compiler": {
    "name": "solc",
    "version": "0.8.13+commit.abaa5c0e.Emscripten.clang"
  },
  "schemaVersion": "3.4.4",
  "updatedAt": "2024-05-31T12:30:38.650Z",
  "networkType": "ethereum",
  "devdoc": {
    "kind": "dev",
    "methods": {},
    "version": 1
  },
  "userdoc": {
    "kind": "user",
    "methods": {},
    "version": 1
  }
}